{
  "_format": "hh-sol-artifact-1",
  "contractName": "TokenizedBallot",
  "sourceName": "contracts/TokenizedBallot.sol",
  "abi": [
    {
      "inputs": [
        {
          "internalType": "bytes32[]",
          "name": "proposalNames",
          "type": "bytes32[]"
        },
        {
          "internalType": "address",
          "name": "_tokenContract",
          "type": "address"
        },
        {
          "internalType": "uint256",
          "name": "_referenceBlock",
          "type": "uint256"
        }
      ],
      "stateMutability": "nonpayable",
      "type": "constructor"
    },
    {
      "inputs": [
        {
          "internalType": "uint256",
          "name": "",
          "type": "uint256"
        }
      ],
      "name": "proposals",
      "outputs": [
        {
          "internalType": "bytes32",
          "name": "name",
          "type": "bytes32"
        },
        {
          "internalType": "uint256",
          "name": "voteCount",
          "type": "uint256"
        }
      ],
      "stateMutability": "view",
      "type": "function"
    },
    {
      "inputs": [],
      "name": "referenceBlock",
      "outputs": [
        {
          "internalType": "uint256",
          "name": "",
          "type": "uint256"
        }
      ],
      "stateMutability": "view",
      "type": "function"
    },
    {
      "inputs": [],
      "name": "tokenContract",
      "outputs": [
        {
          "internalType": "contract ITokenizedVotes",
          "name": "",
          "type": "address"
        }
      ],
      "stateMutability": "view",
      "type": "function"
    },
    {
      "inputs": [
        {
          "internalType": "uint256",
          "name": "proposal",
          "type": "uint256"
        },
        {
          "internalType": "uint256",
          "name": "amount",
          "type": "uint256"
        }
      ],
      "name": "vote",
      "outputs": [],
      "stateMutability": "nonpayable",
      "type": "function"
    },
    {
      "inputs": [
        {
          "internalType": "address",
          "name": "account",
          "type": "address"
        }
      ],
      "name": "votePower",
      "outputs": [
        {
          "internalType": "uint256",
          "name": "votePower_",
          "type": "uint256"
        }
      ],
      "stateMutability": "view",
      "type": "function"
    },
    {
      "inputs": [],
      "name": "winnerName",
      "outputs": [
        {
          "internalType": "bytes32",
          "name": "winnerName_",
          "type": "bytes32"
        }
      ],
      "stateMutability": "view",
      "type": "function"
    },
    {
      "inputs": [],
      "name": "winningProposal",
      "outputs": [
        {
          "internalType": "uint256",
          "name": "winningProposal_",
          "type": "uint256"
        }
      ],
      "stateMutability": "view",
      "type": "function"
    }
  ],
  "bytecode": "0x60806040523480156200001157600080fd5b5060405162000de238038062000de2833981810160405281019062000037919062000384565b60005b8351811015620000ce5760026040518060400160405280868481518110620000675762000066620003ff565b5b6020026020010151815260200160008152509080600181540180825580915050600190039060005260206000209060020201600090919091909150600082015181600001556020820151816001015550508080620000c5906200045d565b9150506200003a565b5081600160006101000a81548173ffffffffffffffffffffffffffffffffffffffff021916908373ffffffffffffffffffffffffffffffffffffffff16021790555080600081905550505050620004aa565b6000604051905090565b600080fd5b600080fd5b600080fd5b6000601f19601f8301169050919050565b7f4e487b7100000000000000000000000000000000000000000000000000000000600052604160045260246000fd5b620001848262000139565b810181811067ffffffffffffffff82111715620001a657620001a56200014a565b5b80604052505050565b6000620001bb62000120565b9050620001c9828262000179565b919050565b600067ffffffffffffffff821115620001ec57620001eb6200014a565b5b602082029050602081019050919050565b600080fd5b6000819050919050565b620002178162000202565b81146200022357600080fd5b50565b60008151905062000237816200020c565b92915050565b6000620002546200024e84620001ce565b620001af565b905080838252602082019050602084028301858111156200027a5762000279620001fd565b5b835b81811015620002a7578062000292888262000226565b8452602084019350506020810190506200027c565b5050509392505050565b600082601f830112620002c957620002c862000134565b5b8151620002db8482602086016200023d565b91505092915050565b600073ffffffffffffffffffffffffffffffffffffffff82169050919050565b60006200031182620002e4565b9050919050565b620003238162000304565b81146200032f57600080fd5b50565b600081519050620003438162000318565b92915050565b6000819050919050565b6200035e8162000349565b81146200036a57600080fd5b50565b6000815190506200037e8162000353565b92915050565b600080600060608486031215620003a0576200039f6200012a565b5b600084015167ffffffffffffffff811115620003c157620003c06200012f565b5b620003cf86828701620002b1565b9350506020620003e28682870162000332565b9250506040620003f5868287016200036d565b9150509250925092565b7f4e487b7100000000000000000000000000000000000000000000000000000000600052603260045260246000fd5b7f4e487b7100000000000000000000000000000000000000000000000000000000600052601160045260246000fd5b60006200046a8262000349565b91507fffffffffffffffffffffffffffffffffffffffffffffffffffffffffffffffff82036200049f576200049e6200042e565b5b600182019050919050565b61092880620004ba6000396000f3fe608060405234801561001057600080fd5b506004361061007d5760003560e01c8063b384abef1161005b578063b384abef146100ef578063d94c8caa1461010b578063e2ba53f014610129578063e490e699146101475761007d565b8063013cf08b1461008257806355a373d6146100b3578063609ff1bd146100d1575b600080fd5b61009c600480360381019061009791906104a8565b610177565b6040516100aa9291906104fd565b60405180910390f35b6100bb6101ab565b6040516100c891906105a5565b60405180910390f35b6100d96101d1565b6040516100e691906105c0565b60405180910390f35b610109600480360381019061010491906105db565b610259565b005b610113610340565b60405161012091906105c0565b60405180910390f35b610131610346565b60405161013e919061061b565b60405180910390f35b610161600480360381019061015c9190610674565b61037a565b60405161016e91906105c0565b60405180910390f35b6002818154811061018757600080fd5b90600052602060002090600202016000915090508060000154908060010154905082565b600160009054906101000a900473ffffffffffffffffffffffffffffffffffffffff1681565b6000806000905060005b6002805490508110156102545781600282815481106101fd576101fc6106a1565b5b90600052602060002090600202016001015411156102415760028181548110610229576102286106a1565b5b90600052602060002090600202016001015491508092505b808061024c906106ff565b9150506101db565b505090565b60006102643361037a565b9050818110156102a9576040517f08c379a00000000000000000000000000000000000000000000000000000000081526004016102a0906107f0565b60405180910390fd5b81600360003373ffffffffffffffffffffffffffffffffffffffff1673ffffffffffffffffffffffffffffffffffffffff16815260200190815260200160002060008282546102f89190610810565b925050819055508160028481548110610314576103136106a1565b5b906000526020600020906002020160010160008282546103349190610810565b92505081905550505050565b60005481565b600060026103526101d1565b81548110610363576103626106a1565b5b906000526020600020906002020160000154905090565b6000600360008373ffffffffffffffffffffffffffffffffffffffff1673ffffffffffffffffffffffffffffffffffffffff16815260200190815260200160002054600160009054906101000a900473ffffffffffffffffffffffffffffffffffffffff1673ffffffffffffffffffffffffffffffffffffffff16633a46b1a8846000546040518363ffffffff1660e01b815260040161041b929190610853565b602060405180830381865afa158015610438573d6000803e3d6000fd5b505050506040513d601f19601f8201168201806040525081019061045c9190610891565b61046691906108be565b9050919050565b600080fd5b6000819050919050565b61048581610472565b811461049057600080fd5b50565b6000813590506104a28161047c565b92915050565b6000602082840312156104be576104bd61046d565b5b60006104cc84828501610493565b91505092915050565b6000819050919050565b6104e8816104d5565b82525050565b6104f781610472565b82525050565b600060408201905061051260008301856104df565b61051f60208301846104ee565b9392505050565b600073ffffffffffffffffffffffffffffffffffffffff82169050919050565b6000819050919050565b600061056b61056661056184610526565b610546565b610526565b9050919050565b600061057d82610550565b9050919050565b600061058f82610572565b9050919050565b61059f81610584565b82525050565b60006020820190506105ba6000830184610596565b92915050565b60006020820190506105d560008301846104ee565b92915050565b600080604083850312156105f2576105f161046d565b5b600061060085828601610493565b925050602061061185828601610493565b9150509250929050565b600060208201905061063060008301846104df565b92915050565b600061064182610526565b9050919050565b61065181610636565b811461065c57600080fd5b50565b60008135905061066e81610648565b92915050565b60006020828403121561068a5761068961046d565b5b60006106988482850161065f565b91505092915050565b7f4e487b7100000000000000000000000000000000000000000000000000000000600052603260045260246000fd5b7f4e487b7100000000000000000000000000000000000000000000000000000000600052601160045260246000fd5b600061070a82610472565b91507fffffffffffffffffffffffffffffffffffffffffffffffffffffffffffffffff820361073c5761073b6106d0565b5b600182019050919050565b600082825260208201905092915050565b7f546f6b656e697a656442616c6c6f743a20547279696e6720746f20766f74652060008201527f6d6f7265207468616e2074686520766f746520706f77657220617661696c616260208201527f6c6520666f722074686973206163636f756e7400000000000000000000000000604082015250565b60006107da605383610747565b91506107e582610758565b606082019050919050565b60006020820190508181036000830152610809816107cd565b9050919050565b600061081b82610472565b915061082683610472565b925082820190508082111561083e5761083d6106d0565b5b92915050565b61084d81610636565b82525050565b60006040820190506108686000830185610844565b61087560208301846104ee565b9392505050565b60008151905061088b8161047c565b92915050565b6000602082840312156108a7576108a661046d565b5b60006108b58482850161087c565b91505092915050565b60006108c982610472565b91506108d483610472565b92508282039050818111156108ec576108eb6106d0565b5b9291505056fea2646970667358221220c6099ebcc5103b365eb7c9f16a3960ee571f627d545e944563a8791b780e6b7964736f6c63430008110033",
  "linkReferences": {},
  "deployedLinkReferences": {}
}